:1000000000100020A1250000CD250000CD25000016
:10001000CD250000CD250000CD250000CD25000018
:10002000CD250000CD250000CD250000CD25000008
:10003000CD250000CD250000CD250000CD250000F8
:10004000CD250000CD25000055130000CD25000072
:10005000CD250000CD250000CD2500009113000026
:10006000CD250000CD250000CD250000CD250000C8
:10007000CD250000CD250000CD250000CD250000B8
:10008000CD250000CD250000CD25000010B5064C83
:100090002378002B07D1054B002B02D0044800E049
:1000A00000BF0123237010BD7C0000200000000071
:1000B0006C2A000008B5084B002B03D007480849FC
:1000C00000E000BF07480368002B03D0064B002B5D
:1000D00000D0984708BDC046000000006C2A000010
:1000E000800000207800002000000000164B002B4C
:1000F00000D1144B9D46402292029A1A924600214A
:100100008B460F461348144A121A02F0F3FB0F4BAA
:10011000002B00D098470E4B002B00D098470020B2
:10012000002104000D000D48002802D00C4800E01A
:1001300000BF02F0B9FB2000290001F0E9F802F04D
:100140009DFBC046000008000010002000000000D9
:10015000000000007C00002094010020000000004E
:100160000000000080B500AF00F00AF800F020F8B1
:1001700000F03CF800F0BAF900F038FBBD4680BD55
:1001800080B500AF084B084A126803218A431A6001
:10019000054B054A12680C218A431A60034B181C50
:1001A00002F0A2FABD4680BD00800C4000366E0110
:1001B00080B500AF0120042101F074FF084B181C2A
:1001C000012101F01DFF074B181C012101F018FF50
:1001D000054B181C012101F013FFBD4680BDC04630
:1001E00000020400001204000072040080B58EB00A
:1001F00000AF3B1C283301221A703B1C283300221D
:100200005A703B1C283300229A703B1C2833002272
:10021000DA703B1C283300221A713B1C2833002261
:100220005A713B1C283300229A713B1C2833002250
:10023000DA713B1C283300221A723B1C283300223F
:100240005A723B1C283300229A723B1C283300222E
:10025000DA723B1C283300221A733B1C283301221C
:100260001A703B1C283300225A703B1C2833002292
:100270005A723B1C283300221A733B1C283300227D
:10028000DA703B1C283301229A703B1C2833002271
:100290009A713B1C28330022DA713B1C2833002260
:1002A0001A723B1C283300229A723B1C283301220D
:1002B000DA723B1C283300221A713B1C28330022BF
:1002C0005A71894A3B1C2833101C191C02F098F8FB
:1002D0003B1C1C3300221A703B1C1C3300225A703A
:1002E0003B1C1C3300229A703B1C1C330022DA702A
:1002F0003B1C1C3300221A713B1C1C3300225A7118
:100300003B1C1C3300229A713B1C1C330022DA7107
:100310003B1C1C3300221A723B1C1C3300225A72F5
:100320003B1C1C3300229A723B1C1C3300221A72A5
:100330003B1C1C3300229A703B1C1C3300225A7059
:100340003B1C1C3300229A713B1C1C3300221A7088
:100350003B1C1C330022DA713B1C1C3300221A7137
:100360003B1C1C330022DA703B1C1C3300225A71E8
:100370003B1C1C3300225A723B1C1C3300229A7215
:10038000594A3B1C1C33101C00211A1C02F0B0F807
:100390003B1C103300221A703B1C103300225A7091
:1003A0003B1C103300229A703B1C10330022DA7081
:1003B0003B1C103300221A713B1C103300225A716F
:1003C0003B1C103300229A713B1C10330022DA715F
:1003D0003B1C103300221A723B1C103300225A724D
:1003E0003B1C103300229A723B1C103300221A72FD
:1003F0003B1C103300229A703B1C103300225A70B1
:100400003B1C103300229A713B1C103300221A70DF
:100410003B1C10330022DA713B1C103300221A718E
:100420003B1C10330022DA703B1C103300225A713F
:100430003B1C103300225A723B1C103300229A726C
:10044000294A3B1C1033101C01211A1C02F050F8E1
:100450003B1D00221A703B1D00225A703B1D0022DA
:100460009A703B1D0022DA703B1D00221A713B1D61
:1004700000225A713B1D00229A713B1D0022DA7145
:100480003B1D00221A723B1D00225A723B1D0022A6
:100490009A723B1D00221A723B1D00229A703B1D6E
:1004A00000225A703B1D00229A713B1D00221A70D7
:1004B0003B1D0022DA713B1D00221A713B1D0022F8
:1004C000DA703B1D00225A713B1D00225A723B1DFF
:1004D00000229A72044A3B1D101C02211A1C02F0D1
:1004E00007F8BD460EB080BD0000014080B58EB05B
:1004F00000AF3B1C283301221A703B1C283300221A
:100500005A703B1C283300229A703B1C283300226F
:10051000DA703B1C283300221A713B1C283300225E
:100520005A713B1C283300229A713B1C283300224D
:10053000DA713B1C283300221A723B1C283300223C
:100540005A723B1C283300229A723B1C283300222B
:10055000DA723B1C283300221A733B1C2833012219
:100560001A703B1C283300225A703B1C283300228F
:100570005A723B1C283300221A733B1C283300227A
:10058000DA703B1C283308229A703B1C2833002267
:100590009A713B1C28330022DA713B1C283300225D
:1005A0001A723B1C283300229A723B1C283300220B
:1005B000DA723B1C283300221A713B1C28330022BC
:1005C0005A71894A3B1C2833101C191C01F018FF72
:1005D0003B1C1C3300221A703B1C1C3300225A7037
:1005E0003B1C1C3300229A703B1C1C330022DA7027
:1005F0003B1C1C3300221A713B1C1C3300225A7115
:100600003B1C1C3300229A713B1C1C330022DA7104
:100610003B1C1C3300221A723B1C1C3300225A72F2
:100620003B1C1C3300229A723B1C1C3300221A72A2
:100630003B1C1C3300229A703B1C1C3300225A7056
:100640003B1C1C3300229A713B1C1C3300221A7085
:100650003B1C1C330022DA713B1C1C3300221A7134
:100660003B1C1C330022DA703B1C1C3300225A71E5
:100670003B1C1C3300225A723B1C1C3300229A7212
:10068000594A3B1C1C33101C00211A1C01F030FF7E
:100690003B1C103300221A703B1C103300225A708E
:1006A0003B1C103300229A703B1C10330022DA707E
:1006B0003B1C103300221A713B1C103300225A716C
:1006C0003B1C103300229A713B1C10330022DA715C
:1006D0003B1C103300221A723B1C103300225A724A
:1006E0003B1C103300229A723B1C103300221A72FA
:1006F0003B1C103300229A703B1C103300225A70AE
:100700003B1C103300229A713B1C103300221A70DC
:100710003B1C10330022DA713B1C103300221A718B
:100720003B1C10330022DA703B1C103300225A713C
:100730003B1C103300225A723B1C103300229A7269
:10074000294A3B1C1033101C01211A1C01F0D0FE59
:100750003B1D00221A703B1D00225A703B1D0022D7
:100760009A703B1D0022DA703B1D00221A713B1D5E
:1007700000225A713B1D00229A713B1D0022DA7142
:100780003B1D00221A723B1D00225A723B1D0022A3
:100790009A723B1D00221A723B1D00229A703B1D6B
:1007A00000225A703B1D00229A713B1D00221A70D4
:1007B0003B1D0022DA713B1D00221A713B1D0022F5
:1007C000DA703B1D00225A713B1D00225A723B1DFC
:1007D00000229A72044A3B1D101C02211A1C01F0CF
:1007E00087FEBD460EB080BD0004014080B500AF5D
:1007F000484B484A52680F218A4302210A435A60F3
:10080000444B444A126B80210A431A63414B414ACC
:10081000926A12011209A021C9050A439A623D4B4E
:100820003C4A126B802149000A431A63394B394A0A
:10083000D26A0F218A4305210A43DA62354B354AD1
:10084000D16A354A0A40A021C9010A43DA62314B14
:10085000304A526D01210A435A652E4B2D4AD26C03
:100860000F218A4305210A43DA642A4B294AD26CB4
:10087000F0218A4350210A43DA64264B254A116D40
:10088000264A0A40A021C9040A431A65214B214A7D
:10089000126D12011209A021C9050A431A651D4BE8
:1008A0001C4A116F1D4A0A40A021C9040A431A6755
:1008B000184B184A126F12011209A021C9050A43E8
:1008C0001A67144A13499823C958154B0B40A021A5
:1008D000C90219439823D1500E4A0E499823C9588A
:1008E000104B0B408021890319439823D150094AAA
:1008F0000849B823C9580C4B0B40A021C900194323
:10090000B823D150094B094A916A094A0A409A62B0
:10091000BD4680BD00600040FF0FFFFFFFFFFFF0FE
:10092000FFFFF0FFFFFF0FFFFFF0FFFF0060084039
:10093000FFF8FFFF90B585B000AF021CB9603B1C0B
:100940000F331A703B1C0F331B78002B11D03B1C4C
:100950000F331B78012B0CD03B1C0F331B78022B61
:1009600007D03B1C0F331B78032B02D03B1C0F33EB
:100970001B780A483B1C0F331A78BB6801210C1CFA
:100980009C40231C191C131CDB009B189B00C318E4
:1009900010335960BD4605B090BDC04600600040B0
:1009A00090B585B000AF021CB9603B1C0F331A70C4
:1009B0003B1C0F331B78002B11D03B1C0F331B78D3
:1009C000012B0CD03B1C0F331B78022B07D03B1C98
:1009D0000F331B78032B02D03B1C0F331B780A48C4
:1009E0003B1C0F331A78BB6801210C1C9C40231C54
:1009F000191C131CDB009B189B00C31810331960D3
:100A0000BD4605B090BDC0460060004080B582B0D4
:100A100000AFFB1D00221A7046E0FB1D1A78264B22
:100A2000D2000021D152FB1D1A7823490223D200A3
:100A30008A18D31800221A80FB1D1A781E49042335
:100A4000D2008A18D31800221A80FB1D1A781A497E
:100A50000623D2008A18D318184A1A80FB1D1A7868
:100A6000174BD2000021D152FB1D1A7814490223E2
:100A7000D2008A18D31800221A80FB1D1A78104958
:100A80000423D2008A18D31800221A80FB1D1A787A
:100A90000B490623D2008A18D31800221A80FB1DA6
:100AA0001A78FB1D01321A70FB1D1B78072BB4D975
:100AB000BD4602B080BDC04698000020102700004F
:100AC0001801002090B583B000AF041C081C111C55
:100AD0001A1CFB1D1C703B1D1880BB1C19803B1C85
:100AE0001A80FB1D1B78072B00D9B0E0FB1D1A787C
:100AF000584BD200391D0988D152FB1D1A7855492F
:100B00000223D2008A18D318BA1C12881A80FB1D3F
:100B10001A7850490423D2008A18D3183A1C128834
:100B20001A80FB1D1A784B490623D2008A18D31865
:100B30003A1C183212881A80FB1D1A78464B520054
:100B4000391C1C310988D152FB1D1C78FB1D1A78F9
:100B5000404BD200D35A1A1CFB1D19783F4BC900D9
:100B6000CB5AD21A3B1C1C331B88101C191C01F0D9
:100B700023FE031C99B23A4BE200D152FB1D1C78B4
:100B8000FB1D1A7833490223D2008A18D3181B8818
:100B90001A1CFB1D197831480223C9004118CB18D3
:100BA0001B88D21A3B1C1C331B88101C191C01F01B
:100BB00003FE031C9AB22A480223E1004118CB1815
:100BC0001A80FB1D1C78FB1D1A7822490423D200D1
:100BD0008A18D3181B881A1CFB1D19781F48042378
:100BE000C9004118CB181B88D21A3B1C1C331B8828
:100BF000101C191C01F0E0FD031C9AB218480423D4
:100C0000E1004118CB181A80FB1D1C78FB1D1A78D7
:100C100010490623D2008A18D3181B881A1CFB1D02
:100C200019780E480623C9004118CB181B88D21A20
:100C30003B1C1C331B88101C191C01F0BDFD031C40
:100C40009AB207480623E1004118CB181A80BD4626
:100C500003B090BDD800002058010020980000206B
:100C60001801002090B585B002AF041C081C111CAF
:100C70001A1CBB1D1C803B1D1880BB1C19803B1C13
:100C80001A80BB1D19883B1D1A88BB1C1B88381C89
:100C900000880090381C1830008801900020FFF771
:100CA00011FFBB1D19883B1D1A88BB1C1B88381CF3
:100CB00000880090381C1830008801900120FFF750
:100CC00001FFBB1D19883B1D1A88BB1C1B88381CE3
:100CD00000880090381C1830008801900220FFF72F
:100CE000F1FEBB1D19883B1D1A88BB1C1B88381CD4
:100CF00000880090381C1830008801900320FFF70E
:100D0000E1FEBB1D19883B1D1A88BB1C1B88381CC3
:100D100000880090381C1830008801900420FFF7EC
:100D2000D1FEBB1D19883B1D1A88BB1C1B88381CB3
:100D300000880090381C1830008801900520FFF7CB
:100D4000C1FEBB1D19883B1D1A88BB1C1B88381CA3
:100D500000880090381C1830008801900620FFF7AA
:100D6000B1FEBB1D19883B1D1A88BB1C1B88381C93
:100D700000880090381C1830008801900720FFF789
:100D8000A1FEBD4603B090BD80B584B000AFB96090
:100D90007A603B603B1C0F33021C1A703B1C0F3304
:100DA0001A78184BD200D25ABB681A803B1C0F33FA
:100DB0001A7814490223D2008A18D3181A887B683B
:100DC0001A803B1C0F331A780E490423D2008A186C
:100DD000D3181A883B681A803B1C0F331A780949CC
:100DE0000623D2008A18D3181A88BB691A803B1CC4
:100DF0000F331A78044B5200D25AFB691A80BD4651
:100E000004B080BDD80000205801002080B584B017
:100E100002AF0A1CFB1D011C19703B1D1A80FB1D33
:100E20001B78074A00923A1D12880192181C002173
:100E300000220023FFF746FEBD4602B080BDC0463B
:100E40001027000080B582B000AF021CBB1D1A80C5
:100E5000BB1D1B880020191CFFF7D8FFBB1D1B887A
:100E60000120191CFFF7D2FFBB1D1B880220191C93
:100E7000FFF7CCFFBB1D1B880320191CFFF7C6FF23
:100E8000BB1D1B880420191CFFF7C0FFBB1D1B885E
:100E90000520191CFFF7BAFFBB1D1B880620191C73
:100EA000FFF7B4FFBB1D1B880720191CFFF7AEFF1F
:100EB000BD4602B080BDC04680B500AF0220002113
:100EC000FFF76EFD01200821FFF76AFD01200721D1
:100ED000FFF766FD02200F21FFF72CFD02200E21F7
:100EE000FFF728FD03200721FFF724FD032006213B
:100EF000FFF720FD01200B21FFF71CFD022001213F
:100F0000FFF718FD04200C21FFF714FD0520022136
:100F1000FFF710FDBD4680BD80B582B000AF022056
:100F20000021FFF73DFD01200821FFF739FD0120D9
:100F30000721FFF735FD514B1B78181C504B1B78D0
:100F4000191CBB1D4F4A8000411849008A5A1A805B
:100F50004B4B1B785A1CD1B2494A1170012B10D04F
:100F600002DC002B03D020E0022B14D01DE0BB1DBF
:100F70001B88012B04D902200021FFF7DBFC14E0C1
:100F800013E0BB1D1B88012B04D901200821FFF7AA
:100F9000D1FC0AE009E0BB1D1B88012B04D901200C
:100FA0000721FFF7C7FCFFE7C046354B1B78032B33
:100FB00057D9324B1B785A1CD1B2304A1170072BCB
:100FC0004CD89A00304BD3181B689F46052002214D
:100FD000FFF7B0FC02200F21FFF7E2FC3EE0022009
:100FE0000F21FFF7A7FC02200E21FFF7D9FC35E007
:100FF00002200E21FFF79EFC03200721FFF7D0FC03
:101000002CE003200721FFF795FC03200621FFF7C2
:10101000C7FC23E003200621FFF78CFC01200B21F5
:10102000FFF7BEFC1AE001200B21FFF783FC022032
:101030000121FFF7B5FC11E002200121FFF77AFC46
:1010400004200C21FFF7ACFC08E004200C21FFF782
:1010500071FC05200221FFF7A3FCC046084B0022CB
:101060001A70064B1B78072B02D9044B00221A700A
:10107000BB1D1B88181CBD4602B080BD6901002045
:10108000680100209800002020290000B0B582B03F
:1010900000AFFB1D00221A70BDE0BB1D00221A70BC
:1010A000AFE0FB1D1978BB1D1A785F4B89008A18C9
:1010B0005200D35A1BB2002B48DDFB1D1978BB1D13
:1010C0001A785A4B89008A185200D35A1A1CFB1DF1
:1010D0001878BB1D1978544B800041184900CB5A31
:1010E0001BB2D218FB1D1878BB1D1978504B80001D
:1010F00041184900CB5A9A421EDAFB1D1878BB1DD5
:101100001A78FB1D1C78BB1D1978484BA400611888
:101110004900C95AFB1D1D78BB1D1C78424BAD0010
:101120002C196400E35A9BB2CB1899B23F4B800054
:1011300082185200D15209E0FB1D1978BB1D1A78A4
:10114000394B89008A1852000121D152FB1D1978B0
:10115000BB1D1A78344B89008A185200D35A1BB22F
:10116000002B49DAFB1D1978BB1D1A782F4B89001B
:101170008A185200D35A1A1CFB1D1878BB1D197807
:10118000294B800041184900CB5A1BB2D218FB1DD5
:101190001878BB1D1978264B800041184900CB5A9E
:1011A0009A421EDDFB1D1878BB1D1A78FB1D1C78AA
:1011B000BB1D19781D4BA40061184900C95AFB1DBD
:1011C0001D78BB1D1C78184BAD002C196400E35A28
:1011D0009BB2CB1899B2154B800082185200D152A5
:1011E0000AE0FB1D1978BB1D1A780F4B89008A187D
:1011F000520001214942D152BB1D1A78BB1D013258
:101200001A70BB1D1B78032B00D84AE7FB1D1A7808
:10121000FB1D01321A70FB1D1B78072B00D83CE721
:10122000BD4602B0B0BDC0461801002098000020A5
:10123000D800002080B582B000AF021CFB1D1A70E0
:10124000064BFA1D1278111C1F220A400121081CAE
:101250009040021C1A60BD4602B080BD00E100E073
:1012600080B500AFBD4680BD80B582B000AF78606C
:1012700039607B683A685A62BD4602B080BDC0469C
:1012800080B582B000AF78600A1CFB1C1A707A68C7
:101290000A4B9A4203D07A68094B9A4200D1C04661
:1012A000FB1C1B78002B03D07B6801225A6002E0F4
:1012B0007B6802225A60BD4602B080BD000001403A
:1012C0000004014080B582B000AF786039607B686F
:1012D0003A689A61BD4602B080BDC04680B582B012
:1012E00000AF786039607B68DA683B681A437B68D6
:1012F000DA60BD4602B080BD80B582B000AF7860D4
:1013000039607B683A68DA61BD4602B080BDC0468C
:1013100080B500AFFFF7A4FFFEF724FF0220FFF720
:1013200089FF0A4B181C0121FFF7D8FF0720FFF7A0
:1013300081FF074B181C0121FFF7D0FF044B181C3D
:101340005E21FFF7D9FF00F069F8FEE700000140D9
:101350000004014080B500AF0C4B181C0121FFF7C1
:10136000B1FFFFF7D9FD031C084A101C191CFFF739
:10137000C3FF064B181C0021FFF776FF034B181C18
:101380000121FFF77DFFBD4680BDC0460000014042
:1013900080B500AF084B181C0121FFF793FFFFF742
:1013A00075FE064B1B68591C044A1160181C00F09E
:1013B000B3F8BD4680BDC046000401406C0100206A
:1013C00080B582B000AF78607B68064A5343064A16
:1013D0009B185B005B087B607B68181CBD4602B0F5
:1013E00080BDC0466D4EC6413930000080B500AFAB
:1013F000094B1B68181CFFF7E3FF021C064B1A6021
:10140000054B1B68181C0A2101F0CCF90B1CDBB240
:10141000181CBD4680BDC0460000002080B500AF4E
:10142000024B00221A70BD4680BDC04684010020D8
:1014300080B582B000AF021CFB1D1A70034BFA1D71
:1014400012781A70BD4602B080BDC04684010020EB
:1014500080B582B000AF7860024B7A681A60BD46F2
:1014600002B080BD8801002080B582B000AF7860F6
:10147000024B7A681A60BD4602B080BD8C01002024
:1014800080B582B000AF7860034B1B687A68D31ACE
:10149000181CBD4602B080BD8801002080B582B016
:1014A00000AF7860034B1B687A68D31A181CBD46DE
:1014B00002B080BD8C01002080B584B000AF021C5A
:1014C0003B1C0F331A703B1C0F331B78002B11D0C1
:1014D0003B1C0F331B78012B0CD03B1C0F331B78AC
:1014E000022B07D03B1C0F331B78032B02D03B1C75
:1014F0000F331B7807493B1C0F331A78131CDB0092
:101500009B189B00CB1818335B68181CBD4604B0B1
:1015100080BDC0460060004090B589B002AF7860E1
:10152000D24B1B780E2B01D900F0BCFC9A00D04B9B
:10153000D3181B689F46FFF769FA7B68181CFFF7F2
:1015400087FF0120FFF774FF00F0ACFC7B68181CDC
:10155000FFF796FF021CFA23DB009A422AD90420E7
:10156000FFF7AAFF021C80239B0113400AD0002032
:10157000FFF7A2FF021C0123134003D00420FFF752
:1015800057FF17E00420FFF797FF021C80239B0101
:10159000134006D10020FFF78FFF021C01231340E8
:1015A00003D00320FFF744FF04E00220FFF740FFD1
:1015B00000F078FC00F076FCFFF728FAFFF77CFCDF
:1015C0002020202100F0E8FE0120012100F0E4FEAF
:1015D00000F088FE00F066FC7B68181CFFF750FFE7
:1015E000031CC82B58D9A34B1B78072B49D8A14BF8
:1015F0001B78002B1CD09F4B1B78013BDBB29E4A13
:10160000009264220192181C002100220023FFF79F
:1016100059FA984B1B780822D31ADBB2964A0092EB
:1016200064220192181C002100220023FFF74AFACD
:10163000904B1A78904B0021009164210191101C6D
:10164000191C00220023FFF73DFA8A4B1B78072262
:10165000D31AD9B2894A8A4B0020009064200190A5
:10166000081C111C1A1C0023FFF72CFA7B68181C9D
:10167000FFF7EEFE7F4B1B780133DAB27D4B1A7019
:101680000AE07C4B00221A706420FFF7DBFB052088
:10169000FFF7CEFE00F006FC00F004FC7B68181C8F
:1016A000FFF7EEFE031CC82B5AD9724B1B78072B91
:1016B00047D8704B1B78002B1CD06E4B1B78013B1E
:1016C000DBB26D4A009264220192181C00210022B4
:1016D0000023FFF7F7F9674B1B780822D31ADBB218
:1016E000654A009264220192181C00210022002306
:1016F000FFF7E8F95F4B1A785F4B002100916421F6
:101700000191101C00210022FFF7DCF9594B1B78D6
:101710000722D31AD9B25B4A5A4B002000906420AA
:101720000190081C111C0022FFF7CCF97B68181CE3
:10173000FFF78EFE4F4B1B780133DAB24D4B1A7018
:101740000EE04C4B00221A706420FFF77BFB7B6895
:10175000181CFFF77DFE0920FFF76AFE00F0A2FBD0
:1017600000F0A0FB0420FFF7A7FE021C80239B01D2
:10177000134017D0444B1B785BB2172B06DC424B4F
:101780001B78DBB20133DAB23F4B1A707B68181C4E
:10179000FFF75EFE7B68181CFFF766FE0620FFF76A
:1017A00047FE2EE00020FFF787FE021C01231340B6
:1017B00018D0354B1B785BB21A1C173206DB324B44
:1017C0001B78DBB2013BDAB22F4B1A707B68181C16
:1017D000FFF73EFE7B68181CFFF746FE0620FFF76A
:1017E00027FE0EE07B68181CFFF74AFE021C224B06
:1017F0009A4206D9244B1B78002B02D10320FFF715
:1018000017FE7B68181CFFF749FE021C1F4B9A420B
:1018100003D90220FFF70CFE44E343E31A4B1B7885
:101820005BB2002B00DC9EE0174B1B783C1C113494
:101830005BB2181C052100F0BFFF031C23703B1C8A
:1018400011331B781A1C9201D21A9200D31ADAB201
:101850000D4B1B78DBB2D318DAB23B1C10331A7075
:101860003B1C173300221A7025E0C046840100207B
:10187000402900007001002010270000581B0000C4
:10188000B80B0000881300007101002060EA00001E
:101890003B1C17331878BC49BB4ABB4B002400944F
:1018A00064240194FFF70EF93B1C17331A783B1C94
:1018B000173301321A703B1C17331A783B1C113353
:1018C0001B785BB29A42E3DB3B1C16333A1C1132A5
:1018D00012781A7014E03B1C16331A78AB4B0021B7
:1018E000009164210191101C191C00220023FFF7B4
:1018F000E9F83B1C16331A783B1C163301321A7078
:101900003B1C16331A783B1C1033002159563B1CE4
:1019100011331B785BB2CB189A42DCDB3B1C1133D2
:1019200019783B1C10331A783B1C15338A181A702F
:1019300013E03B1C15331B78944A009264220192F9
:10194000181C002100220023FFF7BCF83B1C1533B4
:101950001A783B1C153301321A703B1C15331B7867
:10196000082BE6D99EE08A4B1B785BB2002B00DB8C
:101970008EE0874B1B785BB25B42181C052100F0A0
:101980001BFF031C1A1C3B1C0F331A703B1C0F332C
:101990001B781A1C9201D21A9200D31ADAB27C4B2D
:1019A0001B78DBB2D31ADAB23B1C0E331A703B1C25
:1019B000143300221A7012E03B1C14331878724959
:1019C000714A714B0024009464240194FFF77AF863
:1019D0003B1C14331A783B1C143301321A703B1C25
:1019E00014331A783B1C0F331B785BB29A42E3DB4B
:1019F0003B1C13333A1C0F3212781A7015E03B1C53
:101A000013331978634A644B0020009064200190DE
:101A1000081C111C1A1C0023FFF754F83B1C13333D
:101A20001A783B1C133301321A703B1C13331A789B
:101A30003B1C0E33002159563B1C0F331B785BB205
:101A4000CB189A42DBDB3B1C0F3319783B1C0E335F
:101A50001A783B1C12338A181A7013E03B1C12339D
:101A60001B784A4A009264220192181C002100222D
:101A70000023FFF727F83B1C12331A783B1C123364
:101A800001321A703B1C12331B78082BE6D909E08F
:101A90003E4B009364230193002000210022002389
:101AA000FFF710F80720FFF7C3FCFBE17B68181C69
:101AB000FFF7E6FC031CC82B03D90520FFF7B8FC91
:101AC000F0E1EFE10420FFF7F7FC021C80239B010B
:101AD000134016D0314B1B78DBB20133DAB22F4BF7
:101AE0001A702E4B1B785BB2142B02DD2B4B00229D
:101AF0001A707B68181CFFF7B7FC0920FFF798FCE9
:101B0000D0E10020FFF7D8FC021C0123134016D0BF
:101B1000224B1B78DBB2013BDAB2204B1A701F4B11
:101B20001B785BB2002B02DA1C4B14221A707B6804
:101B3000181CFFF799FC0920FFF77AFCB2E1174B5C
:101B40001B785BB2062B2DDD144B1B785BB20D2B83
:101B500028DC7B68181CFFF793FC021C104B1B88C9
:101B60009A4210D9FFF742FC031CFA225200534359
:101B70009AB20B4B1A807B68181CFFF769FC0B208C
:101B8000FFF756FC4BE04AE0050D0000102700006F
:101B900071010020581B0000B80B00007B010020E1
:101BA00004000020C14B1B785BB20D2B37DDBF4B0F
:101BB0001B785BB2142B32DC7B68181CFFF760FCCF
:101BC000021CBB4B1B889A4229D9FFF70FFC031C50
:101BD000FA22920053439AB2B54B1A80FFF706FCE3
:101BE000031C1A1CB34B1A70B24B1B78DAB2B24BFF
:101BF0001A70FFF7FBFB031C1A1C012313405A1E2B
:101C00009341DAB2AD4B1A707B68181CFFF720FCC9
:101C1000A84B1B78072B02D80D20FFF709FC7B6827
:101C2000181CFFF73BFC021CA54B9A4203D902206B
:101C3000FFF7FEFB36E135E19C4B1B785BB2142BC2
:101C40004FD89A009F4BD3181B689F469E4A9E4BC5
:101C5000FA2149000091101C00210022FFF702F830
:101C60003FE0994A984BFA21490000910020111C4D
:101C70000022FEF7F7FF34E0934A934BFA21490024
:101C8000009100200021FEF7EDFF2AE08F498F4AE6
:101C90008D4BFA2040000090081C0021FEF7E2FF67
:101CA0001FE08A49894A884BFA20400000900020B2
:101CB000FEF7D8FF15E08549844A834BFA2040009F
:101CC0000090081C111C0022FEF7CCFF09E08048A0
:101CD0007F497F4A7C4BFA2464000094FEF7C2FFE0
:101CE000C0467B68181CFFF7B3FB0A20FFF7A0FB78
:101CF000D8E07B68181CFFF7C3FB031CC82B03D973
:101D00000820FFF795FBCDE0CCE0FFF76FFB031C4D
:101D1000DAB2694B1A70684B1B785BB2072B0BDC8D
:101D2000654B1B78D8B26B496B4A6C4B6C4C00947A
:101D300000240194FFF728F85F4B1B785BB2072B58
:101D40000BDC5D4B1B78D8B26649664A654B0024B4
:101D5000009464240194FEF7B5FE7B68181CFFF71D
:101D600077FB0C20FFF764FB9CE07B68181CFFF7F7
:101D700087FB031C322B1CD94F4B1B785BB2072B04
:101D80000FDC4D4B1B78D8B2524B1988524B1A8836
:101D9000524B1B88524C2488009464240194FEF713
:101DA00091FE7B68181CFFF753FB0820FFF740FBF0
:101DB00078E077E0414B1B78002B07D03E4B1B7837
:101DC000DBB20133DAB23C4B1A7006E03A4B1B78B7
:101DD000DBB2013BDAB2384B1A70374B1B785BB27F
:101DE000072B07DD344B1B78DBB2083BDBB2DAB2E2
:101DF000314B1A70304B1B785BB2002B07DA2E4B3D
:101E00001B78DBB20833DBB2DAB22B4B1A702A4BE9
:101E10001B78D8B22F49304A304B314C0094002403
:101E20000194FEF7B1FF244B1B78D8B22D492D4AFF
:101E30002C4B00240094C82464000194FEF742FE59
:101E40007B68181CFFF704FB0E20FFF7F1FA29E06E
:101E50007B68181CFFF714FB031C322B21D9164B8F
:101E60001B78D8B21B4B19881B4B1A881B4B1B883D
:101E70001B4C24880094C8240194FEF723FE7B6841
:101E8000181CFFF7E5FA0C4B1B785AB2094B1B786C
:101E90009A4203D10820FFF7CBFA02E00D20FFF7AA
:101EA000C7FAC046BD4607B090BDC0467B010020C2
:101EB000040000207C0100207A0100207D01002028
:101EC00060EA00007C29000088130000C4090000BB
:101ED00083060000720100207401002076010020BA
:101EE00078010020050D000080B586B000AFF860D5
:101EF000B9607A60FB681B687B61BB680122101CBB
:101F00009840031CDB437A691A4079680123194021
:101F1000BB68081C9840031C1A43FB681A60BD4646
:101F200006B080BD80B582B000AF786039607B6854
:101F30001A683B68DA4001231340181CBD4602B002
:101F400080BDC04680B584B000AF7860184BDA6BB6
:101F50003B1C0B33511E8A411A70154B154ADA632C
:101F6000134B5A6807231340FB607A68124B9A425E
:101F700006D87A68114B9A4202D90123FB6001E02E
:101F80000023FB600A4B0A4A52680721101C884351
:101F9000011CFA680A435A603B1C0B331B78002B68
:101FA00002D0034B0022DA63BD4604B080BDC046B8
:101FB00000000C40711B00000048E8010024F40000
:101FC00080B500AF00F022FB031C181CFFF7BAFF1E
:101FD000BD4680BD80B582B000AF7860074B5A6DBA
:101FE0000123134000D005E0C046044B1B6D7A6806
:101FF0001340FAD1BD4602B080BDC04600800C40FF
:1020000080B586B000AF78600A1CFB1C1A700023F4
:102010003B617B681A0A0F2313400A2B30D89A00C1
:10202000194BD3181B689F46184B7B6112E0184B65
:102030007B610FE0174B7B610CE0174B7B61012349
:102040003B6107E0154B7B6110233B6102E0144BC1
:102050007B61C0467B681A0B1F231340FB603B6902
:10206000002B03D03B69181CFFF7B4FFFB1C1B7847
:102070007969FA68081C111C1A1CFFF735FF00E08B
:10208000C046BD4606B080BDD029000040800C404F
:1020900008800C4044800C4058800C4060800C400C
:1020A00078800C4080B588B000AF78600A1CFB1CBB
:1020B0001A700323FB613B1C1B3303221A7000239D
:1020C0003B617A680F231340FB60FB68012B05D04E
:1020D00000D287E0032B00D984E03DE0FB1C1B7895
:1020E000092B00D980E09A00424BD3181B689F4609
:1020F0000423FB613B1C1B3300221A7014E00323F2
:10210000FB613B1C1B3301221A700DE03B1C1B338F
:1021100002221A700223FB6106E00123FB613B1CD3
:102120001B3303221A70C0463B1C1B331B78181C40
:102130000121012200F06AF8FFF742FF2E4BFA69F5
:102140005A6200F0F7F800F043FA031CBB60BB686A
:10215000181CFFF7F7FE4AE0FB1C1B78092B45D83B
:102160009A00264BD3181B689F4600237B611DE015
:1021700000200121012200F049F802237B6115E0D3
:1021800001200121012200F041F801237B610DE0D3
:102190001B4B181C02210122FFF7A6FE03237B61C3
:1021A00004E000237B6101233B61C046FB68022BF6
:1021B0000BD1114B104A916A124A11407A691143AE
:1021C0003A6912040A439A6211E00B4B0A4A916A77
:1021D0000D4A11407A69920011433A6912050A4387
:1021E0009A6204E0C04602E0C04600E0C046BD4638
:1021F00008B080BDFC29000000800C40242A0000AB
:1022000040800C40FCFFFEFFF3FFEFFF80B586B07F
:1022100000AFFB1D1870BB1D19707B1D1A70FB1DD4
:102220001B78052B45D89A00254BD3181B689F4671
:1022300001233B610223FB6001237B611DE004233A
:102240003B610823FB6003237B6116E010233B61A5
:102250002023FB6005237B610FE040233B6180234B
:10226000FB6007237B6108E080235B003B618023E8
:102270009B00FB6009237B61C046BB1D1B78002BC4
:1022800011D0104B3A691A627B1D1B78002B0DD0C0
:10229000C0460D4A7B69101C191CFFF743FE031C46
:1022A000002BF6D002E0074BFA681A6200F042F801
:1022B00002E0C04600E0C046BD4606B080BDC04654
:1022C0004C2A000000800C402C800C4080B500AFF0
:1022D000024B034A9A60BD4680BDC04600600C4078
:1022E000E8AD000080B584B000AF114B1B680C2234
:1022F000934308221343BB600D4B1B680C2213430E
:102300007B60FFF7E3FF0023FB6008E0084BBA683F
:102310001A60074B7A681A60FB680133FB60FB6840
:10232000032BF3DD024BBA681A60BD4604B080BDD2
:1023300000600C4080B500AF024BDA6A024B1A60B5
:10234000BD4680BD00800C408001002080B582B079
:1023500000AF021CFB1D1A70FB1D1B78002B0AD05E
:102360000C4A0C4996235B00CB5801211943962354
:102370005B00D1500BE0074A064996235B00CB581F
:102380000121181C8843011C96235B00D150BD46D7
:1023900002B080BD0060004080B582B000AF7860C0
:1023A0003960164A15499C235B00CB587968C943AC
:1023B00019409C235B00D150104A10499C235B00BC
:1023C000C9587B683868034019439C235B00D1508F
:1023D0000A4A0A499A235B00C9587B6819439A2321
:1023E0005B00D1500120FFF7B1FF044A98235B0046
:1023F0000121D150BD4602B080BDC0460060004002
:1024000080B582B000AF786039607A68364B9A4206
:1024100003D07A68354B9A4200D1C0463B681B789E
:1024200001225340DBB2002B02D07B6802225A60AB
:102430007B6800225A623B689B781A063B68DB780F
:102440001B041A433B689B799B021A433B68DB7968
:102450001B021A433B681B7A1A433B685B78002BCC
:1024600001D0402300E000231A433B685B7A002B35
:1024700001D0802300E000231A433B689B7A002BA5
:1024800001D0202300E000231A433B68DB7A002BB5
:1024900001D0102300E000231A433B681B79002B76
:1024A00002D080239B0100E000231A433B685B7944
:1024B000002B02D080235B0500E000231A433B6819
:1024C0001B7B002B01D0082300E000231A437B680C
:1024D0001A603B681B78002B02D07B6801225A608F
:1024E000BD4602B080BDC04600000140000401406E
:1024F00080B584B000AFF860B9607A60FA68264BA6
:102500009A4203D0FA68254B9A4200D1C0467B68B4
:102510001B789A067B685B781B061A437B689B785E
:102520001B041A437B68DB781B031A437B681B7907
:102530009B021A437B685B791B021A437B689B7979
:102540001A437B68DB79002B02D080239B0300E0D9
:1025500000231A437B681B7A002B02D080235B0385
:1025600000E000231A437B685B7A002B01D0102324
:1025700000E000231A437B689B7A002B01D00423E0
:1025800000E00023111C1943FB68BA6803321201F2
:10259000D150BD4604B080BD0000014000040140A0
:1025A000064880470649074A074B9B1A03DD043B50
:1025B000C858D050FBDCFDF799FD0000152700003E
:1025C000782A0000000000207C000020FEE7C046C2
:1025D00080B582B000AF00F021F8031C7B60094B8E
:1025E0005B681A1C0F2313407A68111CD9400B1C1E
:1025F0007B60054B7A681A607B68181CBD4602B088
:1026000080BDC04600800C409001002080B500AF26
:10261000014B181CBD4680BD00366E0180B582B0EE
:1026200000AF294BDA6AF0239B011340802252014C
:1026300093420CD080229201934204D08022120156
:10264000934208D00BE0214B1B687B6036E080236F
:102650001B027B6032E01E4B1B687B602EE01A4B36
:10266000DA68E023DB00134080229200934218D006
:1026700080229200934206D8002B18D0802252006C
:10268000934211D016E0C0229200934206D08022DD
:10269000D20093420ED10F4B7B600EE00E4B7B605D
:1026A0000BE00E4B7B6008E00D4B7B6005E00D4BB3
:1026B0007B6002E000237B60C046C0467B68181C3C
:1026C000BD4602B080BDC04600800C400C0000201A
:1026D00008000020406F4001809FD500C0D8A700AF
:1026E00040B56400804F120080B582B000AF7860C2
:1026F000064B7A681A60064BDA6A80231B01134086
:1027000001D0FFF765FFBD4602B080BD0800002084
:1027100000800C4080B500AFBD4680BD002934D09C
:102720000123002210B488422CD301242407A142A3
:1027300004D2814202D209011B01F8E7E400A14260
:1027400004D2814202D249005B00F8E7884201D3FB
:10275000401A1A434C08A04202D3001B5C082243D3
:102760008C08A04202D3001B9C082243CC08A04244
:1027700002D3001BDC082243002803D01B0901D030
:102780000909E3E7101C10BC7047002801D00020A5
:10279000C04307B4024802A14018029003BDC046DE
:1027A000D90000000029F0D003B5FFF7B9FF0EBC37
:1027B0004243891A1847C046002941D010B4041C6E
:1027C0004C40A44601230022002900D5494200289C
:1027D00000D5404288422CD301242407A14204D2D0
:1027E000814202D209011B01F8E7E400A14204D2B0
:1027F000814202D249005B00F8E7884201D3401AC7
:102800001A434C08A04202D3001B5C0822438C08E8
:10281000A04202D3001B9C082243CC08A04202D352
:10282000001BDC082243002803D01B0901D0090942
:10283000E3E7101C6446002C00D5404210BC7047F2
:10284000002806D003DB0020C043400801E08020C0
:10285000000607B4024802A14018029003BDC0461A
:10286000190000000029EBD003B5FFF7A7FF0EBC4D
:102870004243891A1847C0467047C046084B10B5F6
:10288000041C002B02D0002100E000BF054B18689B
:10289000836A002B00D09847201C00F033F8C04614
:1028A00000000000682A000070B50E4B0E4D002499
:1028B000ED1AAD101E1CAC4204D0A300F35898478B
:1028C0000134F8E700F020F8084B094D0024ED1A18
:1028D000AD101E1CAC4204D0A300F358984701343D
:1028E000F8E770BD7000002070000020700000202C
:1028F00074000020031C8218934202D01970013327
:10290000FAE77047FEE7C046F8B5C046F8BC08BC19
:102910009E467047F8B5C046F8BC08BC9E46704756
:10292000CC0F0000DE0F0000F00F000002100000CE
:102930001410000026100000381000004A1000009B
:10294000361500004C150000B8150000D815000021
:102950009C160000641700001C180000AC1A000050
:10296000C41A0000381C0000F21C00000A1D000000
:102970006A1D0000B41D0000501E00004C1C000029
:10298000621C0000781C00008C1C0000A21C0000CF
:10299000B61C0000CE1C00004C1C0000621C000095
:1029A000781C00008C1C0000A21C0000B61C00005B
:1029B000CE1C00004C1C0000621C0000781C0000B3
:1029C0008C1C0000A21C0000B61C0000CE1C0000E5
:1029D000802000002E20000034200000282000006D
:1029E00080200000802000003A20000044200000E9
:1029F00080200000802000004E200000E821000020
:102A0000E8210000F0200000FE2000000C21000062
:102A10001A210000E8210000E8210000E821000060
:102A2000E8210000EC2100006A2100007021000074
:102A300080210000EC210000EC210000902100002A
:102A4000EC210000EC210000A2210000682200001F
:102A50005A2200003E220000302200004C220000DA
:102A6000B62200004300000010000020000000001B
:082A70007CD6FF7F010000008D
:102A780015CD5B072C01000000366E0100800000B8
:102A8800000000000000000000000000000000003E
:102A9800000000000000000000000000000000002E
:102AA800642A000000000000000000000000000090
:102AB800000000000000000000000000000000000E
:102AC80000000000000000000000000000000000FE
:102AD80000000000000000000000000000000000EE
:0C2AE800B50000008D00000000000000A0
:04000003000025A133
:00000001FF
